{"abi":[{"inputs":[{"internalType":"bytes32","name":"_hashValue","type":"bytes32"},{"internalType":"uint8","name":"_warrantyPeriod","type":"uint8"}],"stateMutability":"nonpayable","type":"constructor"},{"inputs":[{"internalType":"bytes32","name":"_hashValue","type":"bytes32"}],"name":"verifyHash","outputs":[{"internalType":"bool","name":"","type":"bool"}],"stateMutability":"view","type":"function"},{"inputs":[{"internalType":"uint8","name":"_warrantyPeriod","type":"uint8"}],"name":"verifyWarrantyPeriod","outputs":[{"internalType":"bool","name":"","type":"bool"}],"stateMutability":"view","type":"function"}],"devdoc":{"kind":"dev","methods":{},"version":1},"evm":{"assembly":"    /* \"WarrantyWallet.sol\":58:555  contract WarrantyWallet {... */\n  mstore(0x40, 0x80)\n    /* \"WarrantyWallet.sol\":154:290  constructor(bytes32 _hashValue, uint8 _warrantyPeriod) {... */\n  callvalue\n  dup1\n  iszero\n  tag_1\n  jumpi\n  0x00\n  dup1\n  revert\ntag_1:\n  pop\n  mload(0x40)\n  sub(codesize, bytecodeSize)\n  dup1\n  bytecodeSize\n  dup4\n  codecopy\n  dup2\n  dup2\n  add\n  0x40\n  mstore\n  dup2\n  add\n  swap1\n  tag_2\n  swap2\n  swap1\n  tag_3\n  jump\t// in\ntag_2:\n    /* \"WarrantyWallet.sol\":231:241  _hashValue */\n  dup2\n    /* \"WarrantyWallet.sol\":219:228  hashValue */\n  0x00\n    /* \"WarrantyWallet.sol\":219:241  hashValue = _hashValue */\n  dup2\n  swap1\n  sstore\n  pop\n    /* \"WarrantyWallet.sol\":268:283  _warrantyPeriod */\n  dup1\n    /* \"WarrantyWallet.sol\":251:265  warrantyPeriod */\n  0x01\n  0x00\n    /* \"WarrantyWallet.sol\":251:283  warrantyPeriod = _warrantyPeriod */\n  0x0100\n  exp\n  dup2\n  sload\n  dup2\n  0xff\n  mul\n  not\n  and\n  swap1\n  dup4\n  0xff\n  and\n  mul\n  or\n  swap1\n  sstore\n  pop\n    /* \"WarrantyWallet.sol\":154:290  constructor(bytes32 _hashValue, uint8 _warrantyPeriod) {... */\n  pop\n  pop\n    /* \"WarrantyWallet.sol\":58:555  contract WarrantyWallet {... */\n  jump(tag_6)\n    /* \"#utility.yul\":88:205   */\ntag_8:\n    /* \"#utility.yul\":197:198   */\n  0x00\n    /* \"#utility.yul\":194:195   */\n  dup1\n    /* \"#utility.yul\":187:199   */\n  revert\n    /* \"#utility.yul\":334:411   */\ntag_10:\n    /* \"#utility.yul\":371:378   */\n  0x00\n    /* \"#utility.yul\":400:405   */\n  dup2\n    /* \"#utility.yul\":389:405   */\n  swap1\n  pop\n    /* \"#utility.yul\":334:411   */\n  swap2\n  swap1\n  pop\n  jump\t// out\n    /* \"#utility.yul\":417:539   */\ntag_11:\n    /* \"#utility.yul\":490:514   */\n  tag_22\n    /* \"#utility.yul\":508:513   */\n  dup2\n    /* \"#utility.yul\":490:514   */\n  tag_10\n  jump\t// in\ntag_22:\n    /* \"#utility.yul\":483:488   */\n  dup2\n    /* \"#utility.yul\":480:515   */\n  eq\n    /* \"#utility.yul\":470:533   */\n  tag_23\n  jumpi\n    /* \"#utility.yul\":529:530   */\n  0x00\n    /* \"#utility.yul\":526:527   */\n  dup1\n    /* \"#utility.yul\":519:531   */\n  revert\n    /* \"#utility.yul\":470:533   */\ntag_23:\n    /* \"#utility.yul\":417:539   */\n  pop\n  jump\t// out\n    /* \"#utility.yul\":545:688   */\ntag_12:\n    /* \"#utility.yul\":602:607   */\n  0x00\n    /* \"#utility.yul\":633:639   */\n  dup2\n    /* \"#utility.yul\":627:640   */\n  mload\n    /* \"#utility.yul\":618:640   */\n  swap1\n  pop\n    /* \"#utility.yul\":649:682   */\n  tag_25\n    /* \"#utility.yul\":676:681   */\n  dup2\n    /* \"#utility.yul\":649:682   */\n  tag_11\n  jump\t// in\ntag_25:\n    /* \"#utility.yul\":545:688   */\n  swap3\n  swap2\n  pop\n  pop\n  jump\t// out\n    /* \"#utility.yul\":694:780   */\ntag_13:\n    /* \"#utility.yul\":729:736   */\n  0x00\n    /* \"#utility.yul\":769:773   */\n  0xff\n    /* \"#utility.yul\":762:767   */\n  dup3\n    /* \"#utility.yul\":758:774   */\n  and\n    /* \"#utility.yul\":747:774   */\n  swap1\n  pop\n    /* \"#utility.yul\":694:780   */\n  swap2\n  swap1\n  pop\n  jump\t// out\n    /* \"#utility.yul\":786:904   */\ntag_14:\n    /* \"#utility.yul\":857:879   */\n  tag_28\n    /* \"#utility.yul\":873:878   */\n  dup2\n    /* \"#utility.yul\":857:879   */\n  tag_13\n  jump\t// in\ntag_28:\n    /* \"#utility.yul\":850:855   */\n  dup2\n    /* \"#utility.yul\":847:880   */\n  eq\n    /* \"#utility.yul\":837:898   */\n  tag_29\n  jumpi\n    /* \"#utility.yul\":894:895   */\n  0x00\n    /* \"#utility.yul\":891:892   */\n  dup1\n    /* \"#utility.yul\":884:896   */\n  revert\n    /* \"#utility.yul\":837:898   */\ntag_29:\n    /* \"#utility.yul\":786:904   */\n  pop\n  jump\t// out\n    /* \"#utility.yul\":910:1049   */\ntag_15:\n    /* \"#utility.yul\":965:970   */\n  0x00\n    /* \"#utility.yul\":996:1002   */\n  dup2\n    /* \"#utility.yul\":990:1003   */\n  mload\n    /* \"#utility.yul\":981:1003   */\n  swap1\n  pop\n    /* \"#utility.yul\":1012:1043   */\n  tag_31\n    /* \"#utility.yul\":1037:1042   */\n  dup2\n    /* \"#utility.yul\":1012:1043   */\n  tag_14\n  jump\t// in\ntag_31:\n    /* \"#utility.yul\":910:1049   */\n  swap3\n  swap2\n  pop\n  pop\n  jump\t// out\n    /* \"#utility.yul\":1055:1558   */\ntag_3:\n    /* \"#utility.yul\":1132:1138   */\n  0x00\n    /* \"#utility.yul\":1140:1146   */\n  dup1\n    /* \"#utility.yul\":1189:1191   */\n  0x40\n    /* \"#utility.yul\":1177:1186   */\n  dup4\n    /* \"#utility.yul\":1168:1175   */\n  dup6\n    /* \"#utility.yul\":1164:1187   */\n  sub\n    /* \"#utility.yul\":1160:1192   */\n  slt\n    /* \"#utility.yul\":1157:1276   */\n  iszero\n  tag_33\n  jumpi\n    /* \"#utility.yul\":1195:1274   */\n  tag_34\n  tag_8\n  jump\t// in\ntag_34:\n    /* \"#utility.yul\":1157:1276   */\ntag_33:\n    /* \"#utility.yul\":1315:1316   */\n  0x00\n    /* \"#utility.yul\":1340:1404   */\n  tag_35\n    /* \"#utility.yul\":1396:1403   */\n  dup6\n    /* \"#utility.yul\":1387:1393   */\n  dup3\n    /* \"#utility.yul\":1376:1385   */\n  dup7\n    /* \"#utility.yul\":1372:1394   */\n  add\n    /* \"#utility.yul\":1340:1404   */\n  tag_12\n  jump\t// in\ntag_35:\n    /* \"#utility.yul\":1330:1404   */\n  swap3\n  pop\n    /* \"#utility.yul\":1286:1414   */\n  pop\n    /* \"#utility.yul\":1453:1455   */\n  0x20\n    /* \"#utility.yul\":1479:1541   */\n  tag_36\n    /* \"#utility.yul\":1533:1540   */\n  dup6\n    /* \"#utility.yul\":1524:1530   */\n  dup3\n    /* \"#utility.yul\":1513:1522   */\n  dup7\n    /* \"#utility.yul\":1509:1531   */\n  add\n    /* \"#utility.yul\":1479:1541   */\n  tag_15\n  jump\t// in\ntag_36:\n    /* \"#utility.yul\":1469:1541   */\n  swap2\n  pop\n    /* \"#utility.yul\":1424:1551   */\n  pop\n    /* \"#utility.yul\":1055:1558   */\n  swap3\n  pop\n  swap3\n  swap1\n  pop\n  jump\t// out\n    /* \"WarrantyWallet.sol\":58:555  contract WarrantyWallet {... */\ntag_6:\n  dataSize(sub_0)\n  dup1\n  dataOffset(sub_0)\n  0x00\n  codecopy\n  0x00\n  return\nstop\n\nsub_0: assembly {\n        /* \"WarrantyWallet.sol\":58:555  contract WarrantyWallet {... */\n      mstore(0x40, 0x80)\n      callvalue\n      dup1\n      iszero\n      tag_1\n      jumpi\n      0x00\n      dup1\n      revert\n    tag_1:\n      pop\n      jumpi(tag_2, lt(calldatasize, 0x04))\n      shr(0xe0, calldataload(0x00))\n      dup1\n      0xd6f8612c\n      eq\n      tag_3\n      jumpi\n      dup1\n      0xef020f4a\n      eq\n      tag_4\n      jumpi\n    tag_2:\n      0x00\n      dup1\n      revert\n        /* \"WarrantyWallet.sol\":416:553  function verifyWarrantyPeriod(uint8 _warrantyPeriod) public view returns (bool) {... */\n    tag_3:\n      tag_5\n      0x04\n      dup1\n      calldatasize\n      sub\n      dup2\n      add\n      swap1\n      tag_6\n      swap2\n      swap1\n      tag_7\n      jump\t// in\n    tag_6:\n      tag_8\n      jump\t// in\n    tag_5:\n      mload(0x40)\n      tag_9\n      swap2\n      swap1\n      tag_10\n      jump\t// in\n    tag_9:\n      mload(0x40)\n      dup1\n      swap2\n      sub\n      swap1\n      return\n        /* \"WarrantyWallet.sol\":296:410  function verifyHash(bytes32 _hashValue) public view returns (bool) {... */\n    tag_4:\n      tag_11\n      0x04\n      dup1\n      calldatasize\n      sub\n      dup2\n      add\n      swap1\n      tag_12\n      swap2\n      swap1\n      tag_13\n      jump\t// in\n    tag_12:\n      tag_14\n      jump\t// in\n    tag_11:\n      mload(0x40)\n      tag_15\n      swap2\n      swap1\n      tag_10\n      jump\t// in\n    tag_15:\n      mload(0x40)\n      dup1\n      swap2\n      sub\n      swap1\n      return\n        /* \"WarrantyWallet.sol\":416:553  function verifyWarrantyPeriod(uint8 _warrantyPeriod) public view returns (bool) {... */\n    tag_8:\n        /* \"WarrantyWallet.sol\":490:494  bool */\n      0x00\n        /* \"WarrantyWallet.sol\":531:546  _warrantyPeriod */\n      dup2\n        /* \"WarrantyWallet.sol\":513:546  warrantyPeriod == _warrantyPeriod */\n      0xff\n      and\n        /* \"WarrantyWallet.sol\":513:527  warrantyPeriod */\n      0x01\n      0x00\n      swap1\n      sload\n      swap1\n      0x0100\n      exp\n      swap1\n      div\n      0xff\n      and\n        /* \"WarrantyWallet.sol\":513:546  warrantyPeriod == _warrantyPeriod */\n      0xff\n      and\n      eq\n        /* \"WarrantyWallet.sol\":506:546  return warrantyPeriod == _warrantyPeriod */\n      swap1\n      pop\n        /* \"WarrantyWallet.sol\":416:553  function verifyWarrantyPeriod(uint8 _warrantyPeriod) public view returns (bool) {... */\n      swap2\n      swap1\n      pop\n      jump\t// out\n        /* \"WarrantyWallet.sol\":296:410  function verifyHash(bytes32 _hashValue) public view returns (bool) {... */\n    tag_14:\n        /* \"WarrantyWallet.sol\":357:361  bool */\n      0x00\n        /* \"WarrantyWallet.sol\":393:403  _hashValue */\n      dup2\n        /* \"WarrantyWallet.sol\":380:389  hashValue */\n      sload(0x00)\n        /* \"WarrantyWallet.sol\":380:403  hashValue == _hashValue */\n      eq\n        /* \"WarrantyWallet.sol\":373:403  return hashValue == _hashValue */\n      swap1\n      pop\n        /* \"WarrantyWallet.sol\":296:410  function verifyHash(bytes32 _hashValue) public view returns (bool) {... */\n      swap2\n      swap1\n      pop\n      jump\t// out\n        /* \"#utility.yul\":88:205   */\n    tag_19:\n        /* \"#utility.yul\":197:198   */\n      0x00\n        /* \"#utility.yul\":194:195   */\n      dup1\n        /* \"#utility.yul\":187:199   */\n      revert\n        /* \"#utility.yul\":334:420   */\n    tag_21:\n        /* \"#utility.yul\":369:376   */\n      0x00\n        /* \"#utility.yul\":409:413   */\n      0xff\n        /* \"#utility.yul\":402:407   */\n      dup3\n        /* \"#utility.yul\":398:414   */\n      and\n        /* \"#utility.yul\":387:414   */\n      swap1\n      pop\n        /* \"#utility.yul\":334:420   */\n      swap2\n      swap1\n      pop\n      jump\t// out\n        /* \"#utility.yul\":426:544   */\n    tag_22:\n        /* \"#utility.yul\":497:519   */\n      tag_35\n        /* \"#utility.yul\":513:518   */\n      dup2\n        /* \"#utility.yul\":497:519   */\n      tag_21\n      jump\t// in\n    tag_35:\n        /* \"#utility.yul\":490:495   */\n      dup2\n        /* \"#utility.yul\":487:520   */\n      eq\n        /* \"#utility.yul\":477:538   */\n      tag_36\n      jumpi\n        /* \"#utility.yul\":534:535   */\n      0x00\n        /* \"#utility.yul\":531:532   */\n      dup1\n        /* \"#utility.yul\":524:536   */\n      revert\n        /* \"#utility.yul\":477:538   */\n    tag_36:\n        /* \"#utility.yul\":426:544   */\n      pop\n      jump\t// out\n        /* \"#utility.yul\":550:685   */\n    tag_23:\n        /* \"#utility.yul\":594:599   */\n      0x00\n        /* \"#utility.yul\":632:638   */\n      dup2\n        /* \"#utility.yul\":619:639   */\n      calldataload\n        /* \"#utility.yul\":610:639   */\n      swap1\n      pop\n        /* \"#utility.yul\":648:679   */\n      tag_38\n        /* \"#utility.yul\":673:678   */\n      dup2\n        /* \"#utility.yul\":648:679   */\n      tag_22\n      jump\t// in\n    tag_38:\n        /* \"#utility.yul\":550:685   */\n      swap3\n      swap2\n      pop\n      pop\n      jump\t// out\n        /* \"#utility.yul\":691:1016   */\n    tag_7:\n        /* \"#utility.yul\":748:754   */\n      0x00\n        /* \"#utility.yul\":797:799   */\n      0x20\n        /* \"#utility.yul\":785:794   */\n      dup3\n        /* \"#utility.yul\":776:783   */\n      dup5\n        /* \"#utility.yul\":772:795   */\n      sub\n        /* \"#utility.yul\":768:800   */\n      slt\n        /* \"#utility.yul\":765:884   */\n      iszero\n      tag_40\n      jumpi\n        /* \"#utility.yul\":803:882   */\n      tag_41\n      tag_19\n      jump\t// in\n    tag_41:\n        /* \"#utility.yul\":765:884   */\n    tag_40:\n        /* \"#utility.yul\":923:924   */\n      0x00\n        /* \"#utility.yul\":948:999   */\n      tag_42\n        /* \"#utility.yul\":991:998   */\n      dup5\n        /* \"#utility.yul\":982:988   */\n      dup3\n        /* \"#utility.yul\":971:980   */\n      dup6\n        /* \"#utility.yul\":967:989   */\n      add\n        /* \"#utility.yul\":948:999   */\n      tag_23\n      jump\t// in\n    tag_42:\n        /* \"#utility.yul\":938:999   */\n      swap2\n      pop\n        /* \"#utility.yul\":894:1009   */\n      pop\n        /* \"#utility.yul\":691:1016   */\n      swap3\n      swap2\n      pop\n      pop\n      jump\t// out\n        /* \"#utility.yul\":1022:1112   */\n    tag_24:\n        /* \"#utility.yul\":1056:1063   */\n      0x00\n        /* \"#utility.yul\":1099:1104   */\n      dup2\n        /* \"#utility.yul\":1092:1105   */\n      iszero\n        /* \"#utility.yul\":1085:1106   */\n      iszero\n        /* \"#utility.yul\":1074:1106   */\n      swap1\n      pop\n        /* \"#utility.yul\":1022:1112   */\n      swap2\n      swap1\n      pop\n      jump\t// out\n        /* \"#utility.yul\":1118:1227   */\n    tag_25:\n        /* \"#utility.yul\":1199:1220   */\n      tag_45\n        /* \"#utility.yul\":1214:1219   */\n      dup2\n        /* \"#utility.yul\":1199:1220   */\n      tag_24\n      jump\t// in\n    tag_45:\n        /* \"#utility.yul\":1194:1197   */\n      dup3\n        /* \"#utility.yul\":1187:1221   */\n      mstore\n        /* \"#utility.yul\":1118:1227   */\n      pop\n      pop\n      jump\t// out\n        /* \"#utility.yul\":1233:1443   */\n    tag_10:\n        /* \"#utility.yul\":1320:1324   */\n      0x00\n        /* \"#utility.yul\":1358:1360   */\n      0x20\n        /* \"#utility.yul\":1347:1356   */\n      dup3\n        /* \"#utility.yul\":1343:1361   */\n      add\n        /* \"#utility.yul\":1335:1361   */\n      swap1\n      pop\n        /* \"#utility.yul\":1371:1436   */\n      tag_47\n        /* \"#utility.yul\":1433:1434   */\n      0x00\n        /* \"#utility.yul\":1422:1431   */\n      dup4\n        /* \"#utility.yul\":1418:1435   */\n      add\n        /* \"#utility.yul\":1409:1415   */\n      dup5\n        /* \"#utility.yul\":1371:1436   */\n      tag_25\n      jump\t// in\n    tag_47:\n        /* \"#utility.yul\":1233:1443   */\n      swap3\n      swap2\n      pop\n      pop\n      jump\t// out\n        /* \"#utility.yul\":1449:1526   */\n    tag_26:\n        /* \"#utility.yul\":1486:1493   */\n      0x00\n        /* \"#utility.yul\":1515:1520   */\n      dup2\n        /* \"#utility.yul\":1504:1520   */\n      swap1\n      pop\n        /* \"#utility.yul\":1449:1526   */\n      swap2\n      swap1\n      pop\n      jump\t// out\n        /* \"#utility.yul\":1532:1654   */\n    tag_27:\n        /* \"#utility.yul\":1605:1629   */\n      tag_50\n        /* \"#utility.yul\":1623:1628   */\n      dup2\n        /* \"#utility.yul\":1605:1629   */\n      tag_26\n      jump\t// in\n    tag_50:\n        /* \"#utility.yul\":1598:1603   */\n      dup2\n        /* \"#utility.yul\":1595:1630   */\n      eq\n        /* \"#utility.yul\":1585:1648   */\n      tag_51\n      jumpi\n        /* \"#utility.yul\":1644:1645   */\n      0x00\n        /* \"#utility.yul\":1641:1642   */\n      dup1\n        /* \"#utility.yul\":1634:1646   */\n      revert\n        /* \"#utility.yul\":1585:1648   */\n    tag_51:\n        /* \"#utility.yul\":1532:1654   */\n      pop\n      jump\t// out\n        /* \"#utility.yul\":1660:1799   */\n    tag_28:\n        /* \"#utility.yul\":1706:1711   */\n      0x00\n        /* \"#utility.yul\":1744:1750   */\n      dup2\n        /* \"#utility.yul\":1731:1751   */\n      calldataload\n        /* \"#utility.yul\":1722:1751   */\n      swap1\n      pop\n        /* \"#utility.yul\":1760:1793   */\n      tag_53\n        /* \"#utility.yul\":1787:1792   */\n      dup2\n        /* \"#utility.yul\":1760:1793   */\n      tag_27\n      jump\t// in\n    tag_53:\n        /* \"#utility.yul\":1660:1799   */\n      swap3\n      swap2\n      pop\n      pop\n      jump\t// out\n        /* \"#utility.yul\":1805:2134   */\n    tag_13:\n        /* \"#utility.yul\":1864:1870   */\n      0x00\n        /* \"#utility.yul\":1913:1915   */\n      0x20\n        /* \"#utility.yul\":1901:1910   */\n      dup3\n        /* \"#utility.yul\":1892:1899   */\n      dup5\n        /* \"#utility.yul\":1888:1911   */\n      sub\n        /* \"#utility.yul\":1884:1916   */\n      slt\n        /* \"#utility.yul\":1881:2000   */\n      iszero\n      tag_55\n      jumpi\n        /* \"#utility.yul\":1919:1998   */\n      tag_56\n      tag_19\n      jump\t// in\n    tag_56:\n        /* \"#utility.yul\":1881:2000   */\n    tag_55:\n        /* \"#utility.yul\":2039:2040   */\n      0x00\n        /* \"#utility.yul\":2064:2117   */\n      tag_57\n        /* \"#utility.yul\":2109:2116   */\n      dup5\n        /* \"#utility.yul\":2100:2106   */\n      dup3\n        /* \"#utility.yul\":2089:2098   */\n      dup6\n        /* \"#utility.yul\":2085:2107   */\n      add\n        /* \"#utility.yul\":2064:2117   */\n      tag_28\n      jump\t// in\n    tag_57:\n        /* \"#utility.yul\":2054:2117   */\n      swap2\n      pop\n        /* \"#utility.yul\":2010:2127   */\n      pop\n        /* \"#utility.yul\":1805:2134   */\n      swap3\n      swap2\n      pop\n      pop\n      jump\t// out\n\n    auxdata: 0xa2646970667358221220d6703027ec8f238514ff11a0a73a7c4fed1cb494836ac15ba4698176237a6abc64736f6c63430008130033\n}\n","bytecode":{"linkReferences":{},"object":"608060405234801561001057600080fd5b50604051610322380380610322833981810160405281019061003291906100cf565b8160008190555080600160006101000a81548160ff021916908360ff160217905550505061010f565b600080fd5b6000819050919050565b61007381610060565b811461007e57600080fd5b50565b6000815190506100908161006a565b92915050565b600060ff82169050919050565b6100ac81610096565b81146100b757600080fd5b50565b6000815190506100c9816100a3565b92915050565b600080604083850312156100e6576100e561005b565b5b60006100f485828601610081565b9250506020610105858286016100ba565b9150509250929050565b6102048061011e6000396000f3fe608060405234801561001057600080fd5b50600436106100365760003560e01c8063d6f8612c1461003b578063ef020f4a1461006b575b600080fd5b61005560048036038101906100509190610108565b61009b565b6040516100629190610150565b60405180910390f35b610085600480360381019061008091906101a1565b6100bc565b6040516100929190610150565b60405180910390f35b60008160ff16600160009054906101000a900460ff1660ff16149050919050565b600081600054149050919050565b600080fd5b600060ff82169050919050565b6100e5816100cf565b81146100f057600080fd5b50565b600081359050610102816100dc565b92915050565b60006020828403121561011e5761011d6100ca565b5b600061012c848285016100f3565b91505092915050565b60008115159050919050565b61014a81610135565b82525050565b60006020820190506101656000830184610141565b92915050565b6000819050919050565b61017e8161016b565b811461018957600080fd5b50565b60008135905061019b81610175565b92915050565b6000602082840312156101b7576101b66100ca565b5b60006101c58482850161018c565b9150509291505056fea2646970667358221220d6703027ec8f238514ff11a0a73a7c4fed1cb494836ac15ba4698176237a6abc64736f6c63430008130033","opcodes":"PUSH1 0x80 PUSH1 0x40 MSTORE CALLVALUE DUP1 ISZERO PUSH2 0x10 JUMPI PUSH1 0x0 DUP1 REVERT JUMPDEST POP PUSH1 0x40 MLOAD PUSH2 0x322 CODESIZE SUB DUP1 PUSH2 0x322 DUP4 CODECOPY DUP2 DUP2 ADD PUSH1 0x40 MSTORE DUP2 ADD SWAP1 PUSH2 0x32 SWAP2 SWAP1 PUSH2 0xCF JUMP JUMPDEST DUP2 PUSH1 0x0 DUP2 SWAP1 SSTORE POP DUP1 PUSH1 0x1 PUSH1 0x0 PUSH2 0x100 EXP DUP2 SLOAD DUP2 PUSH1 0xFF MUL NOT AND SWAP1 DUP4 PUSH1 0xFF AND MUL OR SWAP1 SSTORE POP POP POP PUSH2 0x10F JUMP JUMPDEST PUSH1 0x0 DUP1 REVERT JUMPDEST PUSH1 0x0 DUP2 SWAP1 POP SWAP2 SWAP1 POP JUMP JUMPDEST PUSH2 0x73 DUP2 PUSH2 0x60 JUMP JUMPDEST DUP2 EQ PUSH2 0x7E JUMPI PUSH1 0x0 DUP1 REVERT JUMPDEST POP JUMP JUMPDEST PUSH1 0x0 DUP2 MLOAD SWAP1 POP PUSH2 0x90 DUP2 PUSH2 0x6A JUMP JUMPDEST SWAP3 SWAP2 POP POP JUMP JUMPDEST PUSH1 0x0 PUSH1 0xFF DUP3 AND SWAP1 POP SWAP2 SWAP1 POP JUMP JUMPDEST PUSH2 0xAC DUP2 PUSH2 0x96 JUMP JUMPDEST DUP2 EQ PUSH2 0xB7 JUMPI PUSH1 0x0 DUP1 REVERT JUMPDEST POP JUMP JUMPDEST PUSH1 0x0 DUP2 MLOAD SWAP1 POP PUSH2 0xC9 DUP2 PUSH2 0xA3 JUMP JUMPDEST SWAP3 SWAP2 POP POP JUMP JUMPDEST PUSH1 0x0 DUP1 PUSH1 0x40 DUP4 DUP6 SUB SLT ISZERO PUSH2 0xE6 JUMPI PUSH2 0xE5 PUSH2 0x5B JUMP JUMPDEST JUMPDEST PUSH1 0x0 PUSH2 0xF4 DUP6 DUP3 DUP7 ADD PUSH2 0x81 JUMP JUMPDEST SWAP3 POP POP PUSH1 0x20 PUSH2 0x105 DUP6 DUP3 DUP7 ADD PUSH2 0xBA JUMP JUMPDEST SWAP2 POP POP SWAP3 POP SWAP3 SWAP1 POP JUMP JUMPDEST PUSH2 0x204 DUP1 PUSH2 0x11E PUSH1 0x0 CODECOPY PUSH1 0x0 RETURN INVALID PUSH1 0x80 PUSH1 0x40 MSTORE CALLVALUE DUP1 ISZERO PUSH2 0x10 JUMPI PUSH1 0x0 DUP1 REVERT JUMPDEST POP PUSH1 0x4 CALLDATASIZE LT PUSH2 0x36 JUMPI PUSH1 0x0 CALLDATALOAD PUSH1 0xE0 SHR DUP1 PUSH4 0xD6F8612C EQ PUSH2 0x3B JUMPI DUP1 PUSH4 0xEF020F4A EQ PUSH2 0x6B JUMPI JUMPDEST PUSH1 0x0 DUP1 REVERT JUMPDEST PUSH2 0x55 PUSH1 0x4 DUP1 CALLDATASIZE SUB DUP2 ADD SWAP1 PUSH2 0x50 SWAP2 SWAP1 PUSH2 0x108 JUMP JUMPDEST PUSH2 0x9B JUMP JUMPDEST PUSH1 0x40 MLOAD PUSH2 0x62 SWAP2 SWAP1 PUSH2 0x150 JUMP JUMPDEST PUSH1 0x40 MLOAD DUP1 SWAP2 SUB SWAP1 RETURN JUMPDEST PUSH2 0x85 PUSH1 0x4 DUP1 CALLDATASIZE SUB DUP2 ADD SWAP1 PUSH2 0x80 SWAP2 SWAP1 PUSH2 0x1A1 JUMP JUMPDEST PUSH2 0xBC JUMP JUMPDEST PUSH1 0x40 MLOAD PUSH2 0x92 SWAP2 SWAP1 PUSH2 0x150 JUMP JUMPDEST PUSH1 0x40 MLOAD DUP1 SWAP2 SUB SWAP1 RETURN JUMPDEST PUSH1 0x0 DUP2 PUSH1 0xFF AND PUSH1 0x1 PUSH1 0x0 SWAP1 SLOAD SWAP1 PUSH2 0x100 EXP SWAP1 DIV PUSH1 0xFF AND PUSH1 0xFF AND EQ SWAP1 POP SWAP2 SWAP1 POP JUMP JUMPDEST PUSH1 0x0 DUP2 PUSH1 0x0 SLOAD EQ SWAP1 POP SWAP2 SWAP1 POP JUMP JUMPDEST PUSH1 0x0 DUP1 REVERT JUMPDEST PUSH1 0x0 PUSH1 0xFF DUP3 AND SWAP1 POP SWAP2 SWAP1 POP JUMP JUMPDEST PUSH2 0xE5 DUP2 PUSH2 0xCF JUMP JUMPDEST DUP2 EQ PUSH2 0xF0 JUMPI PUSH1 0x0 DUP1 REVERT JUMPDEST POP JUMP JUMPDEST PUSH1 0x0 DUP2 CALLDATALOAD SWAP1 POP PUSH2 0x102 DUP2 PUSH2 0xDC JUMP JUMPDEST SWAP3 SWAP2 POP POP JUMP JUMPDEST PUSH1 0x0 PUSH1 0x20 DUP3 DUP5 SUB SLT ISZERO PUSH2 0x11E JUMPI PUSH2 0x11D PUSH2 0xCA JUMP JUMPDEST JUMPDEST PUSH1 0x0 PUSH2 0x12C DUP5 DUP3 DUP6 ADD PUSH2 0xF3 JUMP JUMPDEST SWAP2 POP POP SWAP3 SWAP2 POP POP JUMP JUMPDEST PUSH1 0x0 DUP2 ISZERO ISZERO SWAP1 POP SWAP2 SWAP1 POP JUMP JUMPDEST PUSH2 0x14A DUP2 PUSH2 0x135 JUMP JUMPDEST DUP3 MSTORE POP POP JUMP JUMPDEST PUSH1 0x0 PUSH1 0x20 DUP3 ADD SWAP1 POP PUSH2 0x165 PUSH1 0x0 DUP4 ADD DUP5 PUSH2 0x141 JUMP JUMPDEST SWAP3 SWAP2 POP POP JUMP JUMPDEST PUSH1 0x0 DUP2 SWAP1 POP SWAP2 SWAP1 POP JUMP JUMPDEST PUSH2 0x17E DUP2 PUSH2 0x16B JUMP JUMPDEST DUP2 EQ PUSH2 0x189 JUMPI PUSH1 0x0 DUP1 REVERT JUMPDEST POP JUMP JUMPDEST PUSH1 0x0 DUP2 CALLDATALOAD SWAP1 POP PUSH2 0x19B DUP2 PUSH2 0x175 JUMP JUMPDEST SWAP3 SWAP2 POP POP JUMP JUMPDEST PUSH1 0x0 PUSH1 0x20 DUP3 DUP5 SUB SLT ISZERO PUSH2 0x1B7 JUMPI PUSH2 0x1B6 PUSH2 0xCA JUMP JUMPDEST JUMPDEST PUSH1 0x0 PUSH2 0x1C5 DUP5 DUP3 DUP6 ADD PUSH2 0x18C JUMP JUMPDEST SWAP2 POP POP SWAP3 SWAP2 POP POP JUMP INVALID LOG2 PUSH5 0x6970667358 0x22 SLT KECCAK256 0xD6 PUSH17 0x3027EC8F238514FF11A0A73A7C4FED1CB4 SWAP5 DUP4 PUSH11 0xC15BA4698176237A6ABC64 PUSH20 0x6F6C634300081300330000000000000000000000 "},"gasEstimates":{"creation":{"codeDepositCost":"103200","executionCost":"infinite","totalCost":"infinite"},"external":{"verifyHash(bytes32)":"2714","verifyWarrantyPeriod(uint8)":"2746"}},"methodIdentifiers":{"verifyHash(bytes32)":"ef020f4a","verifyWarrantyPeriod(uint8)":"d6f8612c"}},"storageLayout":{"storage":[{"astId":3,"contract":"WarrantyWallet.sol:WarrantyWallet","label":"hashValue","offset":0,"slot":"0","type":"t_bytes32"},{"astId":5,"contract":"WarrantyWallet.sol:WarrantyWallet","label":"warrantyPeriod","offset":0,"slot":"1","type":"t_uint8"}],"types":{"t_bytes32":{"encoding":"inplace","label":"bytes32","numberOfBytes":"32"},"t_uint8":{"encoding":"inplace","label":"uint8","numberOfBytes":"1"}}},"userdoc":{"kind":"user","methods":{},"version":1}}